:100000000C942A000C9447000C9447000C94470071
:100010000C9447000C9447000C9447000C94470044
:100020000C9447000C9447000C94FD190C94470065
:100030000C9447000C9447000C9447000C94470024
:100040000C9447000C9447000C9447000C94470014
:100050000C94470011241FBECFE5D8E0DEBFCDBF12
:1000600013E0A0E6B0E0ECE4F4E302C005900D92EA
:10007000A633B107D9F713E0A6E3B3E001C01D92A0
:10008000A134B107E1F70E9417050C94241A0C94CF
:100090000000843409F471C0853448F4823499F145
:1000A000833408F04DC0813409F083C00FC082361C
:1000B00051F1833620F4813609F07BC007C08336C6
:1000C00009F43EC0843609F074C057C0413069F469
:1000D0002AB381E090E0AC0102C0440F551F6A953D
:1000E000E2F7BA01622B6ABB08952AB381E090E07F
:1000F000AC0102C0440F551F6A95E2F7BA01609542
:1001000062236ABB0895413069F427B381E090E02F
:10011000AC0102C0440F551F6A95E2F7BA01622B89
:1001200067BB089527B381E090E0AC0102C0440FA3
:10013000551F6A95E2F7BA016095622367BB08957F
:10014000413069F424B381E090E0AC0102C0440F77
:10015000551F6A95E2F7BA01622B64BB089524B378
:1001600081E090E0AC0102C0440F551F6A95E2F7B0
:10017000BA016095622364BB0895413069F421B3EC
:1001800081E090E0AC0102C0440F551F6A95E2F790
:10019000BA01622B61BB089521B381E090E0AC010C
:1001A00002C0440F551F6A95E2F7BA0160956223B9
:1001B00061BB0895843409F471C0853448F48234F5
:1001C00099F1833408F04DC0813409F083C00FC029
:1001D000823651F1833620F4813609F07BC007C0A6
:1001E000833609F43EC0843609F074C057C04130EC
:1001F00069F42BB381E090E0AC0102C0440F551FBD
:100200006A95E2F7BA01622B6BBB08952BB381E0CC
:1002100090E0AC0102C0440F551F6A95E2F7BA01A5
:10022000609562236BBB0895413069F428B381E087
:1002300090E0AC0102C0440F551F6A95E2F7BA0185
:10024000622B68BB089528B381E090E0AC0102C046
:10025000440F551F6A95E2F7BA016095622368BBA7
:100260000895413069F425B381E090E0AC0102C00B
:10027000440F551F6A95E2F7BA01622B65BB0895DA
:1002800025B381E090E0AC0102C0440F551F6A9590
:10029000E2F7BA016095622365BB0895413069F4C5
:1002A00022B381E090E0AC0102C0440F551F6A9573
:1002B000E2F7BA01622B62BB089522B381E090E0BD
:1002C000AC0102C0440F551F6A95E2F7BA01609570
:1002D000622362BB0895843409F43DC0853440F440
:1002E0008234F9F0833450F5813409F040C00CC0F9
:1002F0008236B9F0833618F48136C9F505C08336E5
:10030000E9F08436A1F527C02BB381E090E0AC0181
:1003100002C0440F551F6A95E2F7BA0162276BBB12
:10032000089528B381E090E0AC0102C0440F551F4E
:100330006A95E2F7BA01622768BB089525B381E0A8
:1003400090E0AC0102C0440F551F6A95E2F7BA0174
:10035000622765BB089522B381E090E0AC0102C042
:10036000440F551F6A95E2F7BA01622762BB0895F0
:10037000843409F44EC0853440F4823431F183343E
:10038000B0F5813409F057C00EC08236F1F08336E3
:1003900020F4813609F04FC006C0833641F184361F
:1003A00009F049C036C029B381E090E0062E02C0B2
:1003B000880F991F0A94E2F730E08223932302C04A
:1003C000959587956A95E2F7089526B381E090E0C8
:1003D000062E02C0880F991F0A94E2F730E08223AC
:1003E000932302C0959587956A95E2F7089523B304
:1003F00081E090E0062E02C0880F991F0A94E2F770
:1004000030E08223932302C0959587956A95E2F7A1
:10041000089520B381E090E0062E02C0880F991F56
:100420000A94E2F730E08223932302C095958795E2
:100430006A95E2F7089508958434D9F0853438F444
:10044000823499F0833498F48134A1F40CC082365C
:1004500061F0833618F4813669F405C0833639F0CB
:10046000843641F406C06ABB089567BB089564BB37
:10047000089561BB08958434D9F0853438F482340A
:1004800099F0833498F48134A1F40CC0823661F081
:10049000833618F4813669F405C0833639F0843622
:1004A00041F406C06BBB089568BB089565BB089511
:1004B00062BB08958434D9F0853438F4823499F0DD
:1004C000833498F48134A1F40CC0823661F0833611
:1004D00018F4813669F405C0833639F0843641F466
:1004E00006C089B3089586B3089583B3089580B391
:1004F0000895843409F1853438F48234A9F08334C2
:10050000B8F48134E1F40CC0823671F0833618F40B
:100510008136A9F405C0833659F0843681F40CC0C5
:100520008BB380958BBB089588B3809588BB089565
:1005300085B3809585BB089582B3809582BB08956D
:10054000843409F471C0853448F4823499F18334D9
:1005500008F04DC0813409F083C00FC0823651F1DC
:10056000833620F4813609F07BC007C0833609F456
:100570003EC0843609F074C057C0413069F42BB3D3
:1005800081E090E0AC0102C0440F551F6A95E2F78C
:10059000BA01622B6BBB08952BB381E090E0AC01F4
:1005A00002C0440F551F6A95E2F7BA0160956223B5
:1005B0006BBB0895413069F428B381E090E0AC0151
:1005C00002C0440F551F6A95E2F7BA01622B68BB5F
:1005D000089528B381E090E0AC0102C0440F551F9C
:1005E0006A95E2F7BA016095622368BB08954130CD
:1005F00069F425B381E090E0AC0102C0440F551FBF
:100600006A95E2F7BA01622B65BB089525B381E0D4
:1006100090E0AC0102C0440F551F6A95E2F7BA01A1
:100620006095622365BB0895413069F422B381E08F
:1006300090E0AC0102C0440F551F6A95E2F7BA0181
:10064000622B62BB089522B381E090E0AC0102C04E
:10065000440F551F6A95E2F7BA016095622362BBA9
:1006600008950F931F93CF93C82F062F462F4170E5
:1006700060E00E94DA0010E0A801427050705595C9
:1006800047958C2F61E00E94DA00A80144705070F9
:1006900055954795559547958C2F62E00E94DA0055
:1006A00008701070A8015595479555954795559533
:1006B00047958C2F63E00E94DA00CF911F910F9134
:1006C00008950F931F93CF93DF93C82FD62F062F34
:1006D00010E0A80140715070559547955595479584
:1006E000559547955595479564E00E94DA00A80115
:1006F0004072507055954795559547955595479536
:1007000055954795559547958C2F65E00E94DA00E1
:1007100000741070A801042E452F000C441F550BC7
:10072000000C441F551F8C2F66E00E94DA004D2FED
:10073000441F4427441F8C2F67E00E94DA00DF919A
:10074000CF911F910F91089584E660E041E00E94EF
:10075000490084E661E041E00E94490084E662E0ED
:1007600041E00E94490084E663E041E00E944900C4
:1007700084E664E040E00E94490084E665E040E0F1
:100780000E94490084E666E040E00E94490084E659
:1007900067E040E00E94490084E664E041E00E9496
:1007A000A00284E665E041E00E94A00284E666E0E3
:1007B00041E00E94A00284E667E041E00E94A002BE
:1007C00008950F931F93CF93DF93CDB7DEB7609754
:1007D0000FB6F894DEBF0FBECDBFDE011196E0E686
:1007E000F0E080E101900D928150E1F700E084E6B5
:1007F00060E041E00E94DA0084E661E041E00E94AE
:10080000DA0084E662E041E00E94DA0084E663E018
:1008100041E00E94DA0084E6602F40E00E94DA00A6
:1008200010E0612F6C5F84E60E94B801882361F4B8
:10083000E02FF0E0EE0FFF1FEE0FFF1FE10FF11DA5
:10084000EC0FFD1F818104C01F5F143051F70BC0F6
:1008500060960FB6F894DEBF0FBECDBFDF91CF918B
:100860001F910F9108950F5F043009F68FEFF0CFBD
:1008700082E460E041E00E94DA008FE99FE00197A6
:10088000F1F700C0000082E460E040E00E94DA007E
:100890008FE99FE00197F1F700C000000895682FED
:1008A00081E40E943B0282E462E041E00E94DA00BF
:1008B0000E9438040895682F81E40E943B0282E47C
:1008C00062E040E00E94DA000E9438048FEC97E07A
:1008D0000197F1F700C0000008958FEF91EEA4E0BA
:1008E00081509040A040E1F700C0000081E460E04A
:1008F00041E00E94490081E461E041E00E9449003A
:1009000081E462E041E00E94490081E463E041E06B
:100910000E94490081E464E041E00E94490081E4D2
:1009200065E041E00E94490081E466E041E00E9408
:10093000490081E467E041E00E94490082E460E010
:1009400041E00E94490082E462E041E00E944900E7
:1009500082E461E041E00E94490082E461E040E01D
:100960000E94DA0082E00E945B04AFE1BEE41197CE
:10097000F1F700C0000088E30E945B048FEC97E071
:100980000197F1F700C000008CE00E945B04AFEC1F
:10099000B7E01197F1F700C000008FEC97E00197E6
:1009A000F1F700C0000086E00E945B04AFECB7E006
:1009B0001197F1F700C00000089581E00E945B04E8
:1009C0008FE19EE40197F1F700C000000895CF93F6
:1009D000DF93EC018881882331F021960E944F0437
:1009E00089918823D9F7DF91CF910895282F21503D
:1009F000223070F4613170F4662371F0813019F4A3
:100A0000962F91580AC0823041F4962F915405C018
:100A100090E803C090E801C090E8892F0E945B0431
:100A20008FEC97E00197F1F700C0000008950E9455
:100A30006D040E94141A0E94A40381E065E00E94E4
:100A4000F60480E790E00E94E70482E063E00E9401
:100A5000F60488E790E00E94E7048FEF99E6A8E1AA
:100A600081509040A040E1F700C00000C4E8D0E011
:100A700006E910E00F2EF4E2EF2EF3E0FF2EF02D4A
:100A80000F2EF0EBAF2EF0E0BF2EF02D0F2EFCED71
:100A90008F2EF0E09F2EF02D0F2EF8EE6F2EF0E04F
:100AA0007F2EF02D0F2EF3EF4F2EF0E05F2EF02D66
:100AB0000F2EFFEF2F2EF0E03F2EF02D0E94DD04D1
:100AC000CE010E94E70482E061E00E94F604C801C2
:100AD0000E94E7040E94E10390E08133910509F050
:100AE00012C520913903222309F00DC581E08093BE
:100AF00039031092400310923F030E94DD0481E00D
:100B000064E00E94F60488EA90E00E94E7048FEF18
:100B100091EEA4E081509040A040E1F700C00000B9
:100B20000E94DD04C5010E94E704DD24D394809176
:100B30003F0390914003883C910510F0D0923A0316
:100B40000E94E10390E08F3F9105C1F480913A0348
:100B5000882369F30E94DD0482E064E00E94F604C9
:100B60008BEB90E00E94E70480913B0390913C0363
:100B7000019690933C0380933B032AC087339105F1
:100B8000A1F40E94DD0482E064E00E94F60485EC9A
:100B900090E00E94E70480913D0390913E0301960E
:100BA00090933E0380933D0313C00E94DD0482E0D6
:100BB00064E00E94F6048FEC90E00E94E7048091CC
:100BC0003B0390913C03019690933C0380933B033D
:100BD0008FE799EAA3E081509040A040E1F700C080
:100BE00000001092400310923F0310923A030E94BB
:100BF000DD04C4010E94E7048FEF90E7A2E081507A
:100C00009040A040E1F700C00000DD24D394809123
:100C10003F0390914003883C910510F0D0923A0335
:100C20000E94E10390E08F3F9105C1F480913A0367
:100C3000882369F30E94DD0482E064E00E94F604E8
:100C40008BEB90E00E94E70480913B0390913C0382
:100C5000019690933C0380933B032AC08333910514
:100C6000A1F40E94DD0482E064E00E94F60485ECB9
:100C700090E00E94E70480913D0390913E0301962D
:100C800090933E0380933D0313C00E94DD0482E0F5
:100C900064E00E94F6048FEC90E00E94E7048091EB
:100CA0003B0390913C03019690933C0380933B035C
:100CB0008FE799EAA3E081509040A040E1F700C09F
:100CC00000001092400310923F0310923A030E94DA
:100CD000DD04C3010E94E7048FEF90E7A2E081509A
:100CE0009040A040E1F700C00000DD24D394809143
:100CF0003F0390914003883C910510F0D0923A0355
:100D00000E94E10390E08F3F9105C1F480913A0386
:100D1000882369F30E94DD0482E064E00E94F60407
:100D20008BEB90E00E94E70480913B0390913C03A1
:100D3000019690933C0380933B032AC08533910531
:100D4000A1F40E94DD0482E064E00E94F60485ECD8
:100D500090E00E94E70480913D0390913E0301964C
:100D600090933E0380933D0313C00E94DD0482E014
:100D700064E00E94F6048FEC90E00E94E70480910A
:100D80003B0390913C03019690933C0380933B037B
:100D90008FE799EAA3E081509040A040E1F700C0BE
:100DA00000001092400310923F0310923A030E94F9
:100DB000DD04C2010E94E7048FEF90E7A2E08150BA
:100DC0009040A040E1F700C00000DD24D394809162
:100DD0003F0390914003883C910510F0D0923A0374
:100DE0000E94E103282F90E08F3F9105C1F480918C
:100DF0003A03882361F30E94DD0482E064E00E94EC
:100E0000F6048BEB90E00E94E70480913B03909105
:100E10003C03019690933C0380933B032DC08533A4
:100E20009105B9F4822F0E944F040E94DD0482E0F4
:100E300064E00E94F60485EC90E00E94E704809153
:100E40003D0390913E03019690933E0380933D03B2
:100E500013C00E94DD0482E064E00E94F6048FEC7F
:100E600090E00E94E70480913B0390913C0301963F
:100E700090933C0380933B038FE799EAA3E0815072
:100E80009040A040E1F700C0000010924003109293
:100E90003F0310923A030E94DD04C1010E94E7045F
:100EA0008FEF90E7A2E081509040A040E1F700C0B2
:100EB0000000DD24D39480913F0390914003883C4F
:100EC000910510F0D0923A030E94E103282F90E0A0
:100ED0008F3F9105C1F480913A03882361F30E940A
:100EE000DD0482E064E00E94F6048BEB90E00E9457
:100EF000E70480913B0390913C03019690933C035F
:100F000080933B032DC087339105B9F4822F0E9453
:100F10004F040E94DD0482E064E00E94F60485EC48
:100F200090E00E94E70480913D0390913E0301967A
:100F300090933E0380933D0313C00E94DD0482E042
:100F400064E00E94F6048FEC90E00E94E704809138
:100F50003B0390913C03019690933C0380933B03A9
:100F60008FE799EAA3E081509040A040E1F700C0EC
:100F700000001092400310923F0310923A030E9427
:100F8000DD048AE091E00E94E7048FEF90E7A2E0A1
:100F900081509040A040E1F700C00000DD24D394D0
:100FA00080913F0390914003883C910510F0D092CE
:100FB0003A030E94E103282F90E08F3F9105C1F48E
:100FC00080913A03882361F30E94DD0482E064E0AB
:100FD0000E94F6048BEB90E00E94E70480913B03B3
:100FE00090913C03019690933C0380933B032DC06A
:100FF00086339105B9F4822F0E944F040E94DD04CC
:1010000082E064E00E94F60485EC90E00E94E70430
:1010100080913D0390913E03019690933E0380930F
:101020003D0313C00E94DD0482E064E00E94F604E8
:101030008FEC90E00E94E70480913B0390913C0389
:10104000019690933C0380933B038FE799EAA3E0DA
:1010500081509040A040E1F700C000001092400392
:1010600010923F0310923A030E94DD0489E191E05F
:101070000E94E7048FEF90E7A2E081509040A040EB
:10108000E1F700C00000DD24D39480913F039091EC
:101090004003883C910510F0D0923A030E94E1038E
:1010A000282F90E08F3F9105C1F480913A03882367
:1010B00061F30E94DD0482E064E00E94F6048BEBA1
:1010C00090E00E94E70480913B0390913C030196DD
:1010D00090933C0380933B032DC088339105B9F472
:1010E000822F0E944F040E94DD0482E064E00E948F
:1010F000F60485EC90E00E94E70480913D03909116
:101100003E03019690933E0380933D0313C00E94DB
:10111000DD0482E064E00E94F6048FEC90E00E941F
:10112000E70480913B0390913C03019690933C032C
:1011300080933B038FE799EAA3E081509040A04061
:10114000E1F700C000001092400310923F0310929C
:101150003A030E94DD0489E291E00E94E7048FEFE8
:1011600090E7A2E081509040A040E1F700C000006D
:10117000DD24D39480913F0390914003883C9105F6
:1011800010F0D0923A030E94E103282F90E08F3FA5
:101190009105C1F480913A03882361F30E94DD0434
:1011A00082E064E00E94F6048BEB90E00E94E7048A
:1011B00080913B0390913C03019690933C03809374
:1011C0003B032DC084339105B9F4822F0E944F0454
:1011D0000E94DD0482E064E00E94F60485EC90E069
:1011E0000E94E70480913D0390913E030196909305
:1011F0003E0380933D0313C00E94DD0482E064E05F
:101200000E94F6048FEC90E00E94E70480913B037B
:1012100090913C03019690933C0380933B038FE7AE
:1012200099EAA3E081509040A040E1F700C000009F
:101230001092400310923F0310923A030E94DD0483
:101240008AE391E00E94E7048FEF90E7A2E08150EB
:101250009040A040E1F700C00000DD24D3948091CD
:101260003F0390914003883C910510F0D0923A03DF
:101270000E94E103282F90E08F3F9105C1F48091F7
:101280003A03882361F30E94DD0482E064E00E9457
:10129000F6048BEB90E00E94E70480913B03909171
:1012A0003C03019690933C0380933B032DC0823313
:1012B0009105B9F4822F0E944F040E94DD0482E060
:1012C00064E00E94F60485EC90E00E94E7048091BF
:1012D0003D0390913E03019690933E0380933D031E
:1012E00013C00E94DD0482E064E00E94F6048FECEB
:1012F00090E00E94E70480913B0390913C030196AB
:1013000090933C0380933B038FE799EAA3E08150DD
:101310009040A040E1F700C00000109240031092FE
:101320003F0310923A030E94DD048AE491E00E9498
:10133000E7048FEF90E7A2E081509040A040E1F7F2
:1013400000C00000DD24D39480913F0390914003BE
:10135000883C910510F0D0923A030E94E103282FB7
:1013600090E08F3F9105C1F480913A03882361F3A7
:101370000E94DD0482E064E00E94F6048BEB90E0C2
:101380000E94E70480913B0390913C030196909367
:101390003C0380933B032DC080339105B9F4822F29
:1013A0000E944F040E94DD0482E064E00E94F60483
:1013B00085EC90E00E94E70480913D0390913E030C
:1013C000019690933E0380933D0313C00E94DD0479
:1013D00082E064E00E94F6048FEC90E00E94E70453
:1013E00080913B0390913C03019690933C03809342
:1013F0003B038FE799EAA3E081509040A040E1F7DA
:1014000000C000000E94DD048BE591E00E94E7042B
:1014100081E06DE00E94F60480913D0390913E03CF
:10142000805D0E944F0482E061E00E94F60488E63D
:1014300091E00E94E70482E06BE00E94F604809154
:101440003B0390913C03805D0E944F048FEF97E82F
:10145000A3E181509040A040E1F700C000000E944D
:10146000DD0480913D0390913E0320913B03309138
:101470003C032817390758F51092400310923F0398
:1014800010923E0310923D0310923C0310923B03D6
:1014900083E791E00E94E7048FE799EAA3E0815097
:1014A0009040A040E1F700C000000E94DD048AE700
:1014B00091E00E94E7048FEF91EEA4E0815090400C
:1014C000A040E1F700C000000E94DD04F7CA1092BE
:1014D000390381E065E00E94F60488E891E00E940B
:1014E000E70482E064E00E94F6048FE891E00E9445
:1014F000E7048FEF93ECA9E081509040A040E1F722
:1015000000C00000DBCA8233910509F01EC580913E
:101510003903813009F006C51092400310923F0351
:101520000E94DD0481E064E00E94F60489E991E014
:101530000E94E7048FEF91EEA4E081509040A0401C
:10154000E1F700C000000E94DD0481EA91E00E9402
:10155000E704DD24D39480913F0390914003883CBD
:10156000910510F0D0923A030E94E10390E08F3F82
:101570009105C1F480913A03882369F30E94DD0448
:1015800082E064E00E94F6048BEB90E00E94E704A6
:1015900080913B0390913C03019690933C03809390
:1015A0003B032AC083339105A1F40E94DD0482E04D
:1015B00064E00E94F60485EC90E00E94E7048091CC
:1015C0003D0390913E03019690933E0380933D032B
:1015D00013C00E94DD0482E064E00E94F6048FECF8
:1015E00090E00E94E70480913B0390913C030196B8
:1015F00090933C0380933B038FE799EAA3E08150EB
:101600009040A040E1F700C000001092400310920B
:101610003F0310923A030E94DD0480EB91E00E94A8
:10162000E7048FEF90E7A2E081509040A040E1F7FF
:1016300000C00000DD24D39480913F0390914003CB
:10164000883C910510F0D0923A030E94E10390E0AB
:101650008F3F9105C1F480913A03882369F30E947A
:10166000DD0482E064E00E94F6048BEB90E00E94CF
:10167000E70480913B0390913C03019690933C03D7
:1016800080933B032AC082339105A1F40E94DD04BC
:1016900082E064E00E94F60485EC90E00E94E7049A
:1016A00080913D0390913E03019690933E03809379
:1016B0003D0313C00E94DD0482E064E00E94F60452
:1016C0008FEC90E00E94E70480913B0390913C03F3
:1016D000019690933C0380933B038FE799EAA3E044
:1016E00081509040A040E1F700C0000010924003FC
:1016F00010923F0310923A030E94DD048FEB91E0B9
:101700000E94E7048FEF90E7A2E081509040A04054
:10171000E1F700C00000DD24D39480913F03909155
:101720004003883C910510F0D0923A030E94E103F7
:1017300090E08F3F9105C1F480913A03882369F3CB
:101740000E94DD0482E064E00E94F6048BEB90E0EE
:101750000E94E70480913B0390913C030196909393
:101760003C0380933B032AC086339105A1F40E9479
:10177000DD0482E064E00E94F60485EC90E00E94C3
:10178000E70480913D0390913E03019690933E03C0
:1017900080933D0313C00E94DD0482E064E00E9458
:1017A000F6048FEC90E00E94E70480913B03909157
:1017B0003C03019690933C0380933B038FE799EAA7
:1017C000A3E081509040A040E1F700C000001092DB
:1017D000400310923F0310923A030E94DD048FEC05
:1017E00091E00E94E7048FEF90E7A2E081509040E3
:1017F000A040E1F700C00000DD24D39480913F03B6
:1018000090914003883C910510F0D0923A030E94D9
:10181000E103282F90E08F3F9105C1F480913A03B6
:10182000882361F30E94DD0482E064E00E94F604F4
:101830008BEB90E00E94E70480913B0390913C0386
:10184000019690933C0380933B032DC0893391050F
:10185000B9F4822F0E944F040E94DD0482E064E00C
:101860000E94F60485EC90E00E94E70480913D031D
:1018700090913E03019690933E0380933D0313C0E5
:101880000E94DD0482E064E00E94F6048FEC90E0A8
:101890000E94E70480913B0390913C030196909352
:1018A0003C0380933B038FE799EAA3E0815090408B
:1018B000A040E1F700C000001092400310923F03E7
:1018C00010923A030E94DD048FED91E00E94E7043C
:1018D0008FEF90E7A2E081509040A040E1F700C078
:1018E0000000DD24D39480913F0390914003883C15
:1018F000910510F0D0923A030E94E103282F90E066
:101900008F3F9105C1F480913A03882361F30E94CF
:10191000DD0482E064E00E94F6048BEB90E00E941C
:10192000E70480913B0390913C03019690933C0324
:1019300080933B032DC089339105B9F4822F0E9417
:101940004F040E94DD0482E064E00E94F60485EC0E
:1019500090E00E94E70480913D0390913E03019640
:1019600090933E0380933D0313C00E94DD0482E008
:1019700064E00E94F6048FEC90E00E94E7048091FE
:101980003B0390913C03019690933C0380933B036F
:101990008FE799EAA3E081509040A040E1F700C0B2
:1019A00000001092400310923F0310923A030E94ED
:1019B000DD048FEE91E00E94E7048FEF90E7A2E054
:1019C00081509040A040E1F700C00000DD24D39496
:1019D00080913F0390914003883C910510F0D09294
:1019E0003A030E94E103282F90E08F3F9105C1F454
:1019F00080913A03882361F30E94DD0482E064E071
:101A00000E94F6048BEB90E00E94E70480913B0378
:101A100090913C03019690933C0380933B032DC02F
:101A200085339105B9F4822F0E944F040E94DD0492
:101A300082E064E00E94F60485EC90E00E94E704F6
:101A400080913D0390913E03019690933E038093D5
:101A50003D0313C00E94DD0482E064E00E94F604AE
:101A60008FEC90E00E94E70480913B0390913C034F
:101A7000019690933C0380933B038FE799EAA3E0A0
:101A800081509040A040E1F700C000001092400358
:101A900010923F0310923A030E94DD0480E092E02E
:101AA0000E94E7048FEF90E7A2E081509040A040B1
:101AB000E1F700C00000DD24D39480913F039091B2
:101AC0004003883C910510F0D0923A030E94E10354
:101AD000282F90E08F3F9105C1F480913A0388232D
:101AE00061F30E94DD0482E064E00E94F6048BEB67
:101AF00090E00E94E70480913B0390913C030196A3
:101B000090933C0380933B032DC088339105B9F437
:101B1000822F0E944F040E94DD0482E064E00E9454
:101B2000F60485EC90E00E94E70480913D039091DB
:101B30003E03019690933E0380933D0313C00E94A1
:101B4000DD0482E064E00E94F6048FEC90E00E94E5
:101B5000E70480913B0390913C03019690933C03F2
:101B600080933B038FE799EAA3E081509040A04027
:101B7000E1F700C000001092400310923F03109262
:101B80003A030E94DD0480E192E00E94E7048FEFB7
:101B900090E7A2E081509040A040E1F700C0000033
:101BA000DD24D39480913F0390914003883C9105BC
:101BB00010F0D0923A030E94E103282F90E08F3F6B
:101BC0009105C1F480913A03882361F30E94DD04FA
:101BD00082E064E00E94F6048BEB90E00E94E70450
:101BE00080913B0390913C03019690933C0380933A
:101BF0003B032DC081339105B9F4822F0E944F041D
:101C00000E94DD0482E064E00E94F60485EC90E02E
:101C10000E94E70480913D0390913E0301969093CA
:101C20003E0380933D0313C00E94DD0482E064E024
:101C30000E94F6048FEC90E00E94E70480913B0341
:101C400090913C03019690933C0380933B038FE774
:101C500099EAA3E081509040A040E1F700C0000065
:101C60001092400310923F0310923A030E94DD0449
:101C700081E292E00E94E7048FEF90E7A2E08150BA
:101C80009040A040E1F700C00000DD24D394809193
:101C90003F0390914003883C910510F0D0923A03A5
:101CA0000E94E103282F90E08F3F9105C1F48091BD
:101CB0003A03882361F30E94DD0482E064E00E941D
:101CC000F6048BEB90E00E94E70480913B03909137
:101CD0003C03019690933C0380933B032DC08533D6
:101CE0009105B9F4822F0E944F040E94DD0482E026
:101CF00064E00E94F60485EC90E00E94E704809185
:101D00003D0390913E03019690933E0380933D03E3
:101D100013C00E94DD0482E064E00E94F6048FECB0
:101D200090E00E94E70480913B0390913C03019670
:101D300090933C0380933B038FE799EAA3E08150A3
:101D40009040A040E1F700C00000109240031092C4
:101D50003F0310923A030E94DD0480E392E00E9468
:101D6000E7048FEF90E7A2E081509040A040E1F7B8
:101D700000C00000DD24D39480913F039091400384
:101D8000883C910510F0D0923A030E94E103282F7D
:101D900090E08F3F9105C1F480913A03882361F36D
:101DA0000E94DD0482E064E00E94F6048BEB90E088
:101DB0000E94E70480913B0390913C03019690932D
:101DC0003C0380933B032DC088339105B9F4822FE7
:101DD0000E944F040E94DD0482E064E00E94F60449
:101DE00085EC90E00E94E70480913D0390913E03D2
:101DF000019690933E0380933D0313C00E94DD043F
:101E000082E064E00E94F6048FEC90E00E94E70418
:101E100080913B0390913C03019690933C03809307
:101E20003B038FE799EAA3E081509040A040E1F79F
:101E300000C000000E94DD048BE591E00E94E704F1
:101E400081E06DE00E94F60480913D0390913E0395
:101E5000805D0E944F0482E061E00E94F60488E603
:101E600091E00E94E70482E06BE00E94F60480911A
:101E70003B0390913C03805D0E944F048FEF97E8F5
:101E8000A3E181509040A040E1F700C000000E9413
:101E9000DD0480913D0390913E0320913B033091FE
:101EA0003C032817390708F583E791E00E94E7040F
:101EB0008FE799EAA3E081509040A040E1F700C08D
:101EC00000000E94DD0481E492E00E94E7048FEFAD
:101ED00091EEA4E081509040A040E1F700C00000E6
:101EE00081E0809338030C945E0581E065E00E94F8
:101EF000F60488E891E00E94E70482E064E00E9432
:101F0000F6048FE891E00E94E7048FEF93ECA9E0DC
:101F100081509040A040E1F700C0000010923903CA
:101F20000C945E050E94DD048FE492E00E94E704B9
:101F30008FEF96E1A1E181509040A040E1F700C011
:101F400000000E94DD040C945E058333910509F0C6
:101F500031C580913903813009F019C5809138036A
:101F6000813009F014C51092400310923F030E9483
:101F7000DD0481E064E00E94F60480E692E00E94C5
:101F8000E7048FEF91EEA4E081509040A040E1F78C
:101F900000C000000E94DD0488E692E00E94E70491
:101FA000DD24D39480913F0390914003883C9105B8
:101FB00010F0D0923A030E94E10390E08F3F910528
:101FC000C1F480913A03882369F30E94DD0482E022
:101FD00064E00E94F6048BEB90E00E94E70480919D
:101FE0003B0390913C03019690933C0380933B0309
:101FF0002AC082339105A1F40E94DD0482E064E0EE
:102000000E94F60485EC90E00E94E70480913D0375
:1020100090913E03019690933E0380933D0313C03D
:102020000E94DD0482E064E00E94F6048FEC90E000
:102030000E94E70480913B0390913C0301969093AA
:102040003C0380933B038FE799EAA3E081509040E3
:10205000A040E1F700C000001092400310923F033F
:1020600010923A030E94DD048BE792E00E94E7049D
:102070008FEF90E7A2E081509040A040E1F700C0D0
:102080000000DD24D39480913F0390914003883C6D
:10209000910510F0D0923A030E94E10390E08F3F47
:1020A0009105C1F480913A03882369F30E94DD040D
:1020B00082E064E00E94F6048BEB90E00E94E7046B
:1020C00080913B0390913C03019690933C03809355
:1020D0003B032AC084339105A1F40E94DD0482E011
:1020E00064E00E94F60485EC90E00E94E704809191
:1020F0003D0390913E03019690933E0380933D03F0
:1021000013C00E94DD0482E064E00E94F6048FECBC
:1021100090E00E94E70480913B0390913C0301967C
:1021200090933C0380933B038FE799EAA3E08150AF
:102130009040A040E1F700C00000109240031092D0
:102140003F0310923A030E94DD048DE892E00E9462
:10215000E7048FEF90E7A2E081509040A040E1F7C4
:1021600000C00000DD24D39480913F039091400390
:10217000883C910510F0D0923A030E94E10390E070
:102180008F3F9105C1F480913A03882369F30E943F
:10219000DD0482E064E00E94F6048BEB90E00E9494
:1021A000E70480913B0390913C03019690933C039C
:1021B00080933B032AC088339105A1F40E94DD047B
:1021C00082E064E00E94F60485EC90E00E94E7045F
:1021D00080913D0390913E03019690933E0380933E
:1021E0003D0313C00E94DD0482E064E00E94F60417
:1021F0008FEC90E00E94E70480913B0390913C03B8
:10220000019690933C0380933B038FE799EAA3E008
:1022100081509040A040E1F700C0000010924003C0
:1022200010923F0310923A030E94DD048BE992E082
:102230000E94E7048FEF90E7A2E081509040A04019
:10224000E1F700C00000DD24D39480913F0390911A
:102250004003883C910510F0D0923A030E94E103BC
:10226000282F90E08F3F9105C1F480913A03882395
:1022700061F30E94DD0482E064E00E94F6048BEBCF
:1022800090E00E94E70480913B0390913C0301960B
:1022900090933C0380933B032DC085339105B9F4A3
:1022A000822F0E944F040E94DD0482E064E00E94BD
:1022B000F60485EC90E00E94E70480913D03909144
:1022C0003E03019690933E0380933D0313C00E940A
:1022D000DD0482E064E00E94F6048FEC90E00E944E
:1022E000E70480913B0390913C03019690933C035B
:1022F00080933B038FE799EAA3E081509040A04090
:10230000E1F700C000001092400310923F031092CA
:102310003A030E94DD048CEA92E00E94E7048FEF0A
:1023200090E7A2E081509040A040E1F700C000009B
:10233000DD24D39480913F0390914003883C910524
:1023400010F0D0923A030E94E103282F90E08F3FD3
:102350009105C1F480913A03882361F30E94DD0462
:1023600082E064E00E94F6048BEB90E00E94E704B8
:1023700080913B0390913C03019690933C038093A2
:102380003B032DC087339105B9F4822F0E944F047F
:102390000E94DD0482E064E00E94F60485EC90E097
:1023A0000E94E70480913D0390913E030196909333
:1023B0003E0380933D0313C00E94DD0482E064E08D
:1023C0000E94F6048FEC90E00E94E70480913B03AA
:1023D00090913C03019690933C0380933B038FE7DD
:1023E00099EAA3E081509040A040E1F700C00000CE
:1023F0001092400310923F0310923A030E94DD04B2
:1024000089EB92E00E94E7048FEF90E7A2E0815011
:102410009040A040E1F700C00000DD24D3948091FB
:102420003F0390914003883C910510F0D0923A030D
:102430000E94E103282F90E08F3F9105C1F4809125
:102440003A03882361F30E94DD0482E064E00E9485
:10245000F6048BEB90E00E94E70480913B0390919F
:102460003C03019690933C0380933B032DC089333A
:102470009105B9F4822F0E944F040E94DD0482E08E
:1024800064E00E94F60485EC90E00E94E7048091ED
:102490003D0390913E03019690933E0380933D034C
:1024A00013C00E94DD0482E064E00E94F6048FEC19
:1024B00090E00E94E70480913B0390913C030196D9
:1024C00090933C0380933B038FE799EAA3E081500C
:1024D0009040A040E1F700C000001092400310922D
:1024E0003F0310923A030E94DD0489EC92E00E94BF
:1024F000E7048FEF90E7A2E081509040A040E1F721
:1025000000C00000DD24D39480913F0390914003EC
:10251000883C910510F0D0923A030E94E103282FE5
:1025200090E08F3F9105C1F480913A03882361F3D5
:102530000E94DD0482E064E00E94F6048BEB90E0F0
:102540000E94E70480913B0390913C030196909395
:102550003C0380933B032DC085339105B9F4822F52
:102560000E944F040E94DD0482E064E00E94F604B1
:1025700085EC90E00E94E70480913D0390913E033A
:10258000019690933E0380933D0313C00E94DD04A7
:1025900082E064E00E94F6048FEC90E00E94E70481
:1025A00080913B0390913C03019690933C03809370
:1025B0003B038FE799EAA3E081509040A040E1F708
:1025C00000C000001092400310923F0310923A03A3
:1025D0000E94DD0487ED92E00E94E7048FEF90E710
:1025E000A2E081509040A040E1F700C00000DD244F
:1025F000D39480913F0390914003883C910510F063
:10260000D0923A030E94E103282F90E08F3F91057A
:10261000C1F480913A03882361F30E94DD0482E0D3
:1026200064E00E94F6048BEB90E00E94E704809146
:102630003B0390913C03019690933C0380933B03B2
:102640002DC080339105B9F4822F0E944F040E945F
:10265000DD0482E064E00E94F60485EC90E00E94D4
:10266000E70480913D0390913E03019690933E03D1
:1026700080933D0313C00E94DD0482E064E00E9469
:10268000F6048FEC90E00E94E70480913B03909168
:102690003C03019690933C0380933B038FE799EAB8
:1026A000A3E081509040A040E1F700C000001092EC
:1026B000400310923F0310923A030E94DD0483EE20
:1026C00092E00E94E7048FEF90E7A2E081509040F3
:1026D000A040E1F700C00000DD24D39480913F03C7
:1026E00090914003883C910510F0D0923A030E94EB
:1026F000E103282F90E08F3F9105C1F480913A03C8
:10270000882361F30E94DD0482E064E00E94F60405
:102710008BEB90E00E94E70480913B0390913C0397
:10272000019690933C0380933B032DC08733910522
:10273000B9F4822F0E944F040E94DD0482E064E01D
:102740000E94F60485EC90E00E94E70480913D032E
:1027500090913E03019690933E0380933D0313C0F6
:102760000E94DD0482E064E00E94F6048FEC90E0B9
:102770000E94E70480913B0390913C030196909363
:102780003C0380933B038FE799EAA3E0815090409C
:10279000A040E1F700C000001092400310923F03F8
:1027A00010923A030E94DD048FEE92E00E94E7044B
:1027B0008FEF90E7A2E081509040A040E1F700C089
:1027C0000000DD24D39480913F0390914003883C26
:1027D000910510F0D0923A030E94E103282F90E077
:1027E0008F3F9105C1F480913A03882361F30E94E1
:1027F000DD0482E064E00E94F6048BEB90E00E942E
:10280000E70480913B0390913C03019690933C0335
:1028100080933B032DC089339105B9F4822F0E9428
:102820004F040E94DD0482E064E00E94F60485EC1F
:1028300090E00E94E70480913D0390913E03019651
:1028400090933E0380933D0313C00E94DD0482E019
:1028500064E00E94F6048FEC90E00E94E70480910F
:102860003B0390913C03019690933C0380933B0380
:102870008FE799EAA3E081509040A040E1F700C0C3
:1028800000000E94DD048BE591E00E94E70481E0F6
:102890006DE00E94F60480913D0390913E03805DBF
:1028A0000E944F0482E061E00E94F60488E691E015
:1028B0000E94E70482E06BE00E94F60480913B03F3
:1028C00090913C03805D0E944F048FEF97E8A3E155
:1028D00081509040A040E1F700C000000E94DD045C
:1028E00080913D0390913E0320913B0330913C0346
:1028F0002817390778F51092400310923F03109281
:102900003E0310923D0310923C0310923B0383E779
:1029100091E00E94E7048FE799EAA3E0815090409C
:10292000A040E1F700C000000E94DD048DEF92E0BE
:102930000E94E7048FEF91EEA4E081509040A04008
:10294000E1F700C000000E94DD0481E080933703BE
:102950000C945E051092380381E065E00E94F60455
:1029600088E891E00E94E70482E064E00E94F604B7
:102970008FE891E00E94E7048FEF93ECA9E081508B
:102980009040A040E1F700C000000C945E050E945A
:10299000DD048BE093E00E94E7048FEF96E1A1E174
:1029A00081509040A040E1F700C000000E94DD048B
:1029B0000C945E058433910511F00C946A058091A6
:1029C0003903813009F007C580913803813009F05F
:1029D00002C580913703813009F0FDC41092400395
:1029E00010923F030E94DD0481E064E00E94F6043F
:1029F0008CE193E00E94E7048FEF91EEA4E0815018
:102A00009040A040E1F700C000000E94DD04C50135
:102A10000E94E704DD24D39480913F03909140030A
:102A2000883C910510F0D0923A030E94E10390E0B7
:102A30008F3F9105C1F480913A03882369F30E9486
:102A4000DD0482E064E00E94F6048BEB90E00E94DB
:102A5000E70480913B0390913C03019690933C03E3
:102A600080933B032AC087339105A1F40E94DD04C3
:102A700082E064E00E94F60485EC90E00E94E704A6
:102A800080913D0390913E03019690933E03809385
:102A90003D0313C00E94DD0482E064E00E94F6045E
:102AA0008FEC90E00E94E70480913B0390913C03FF
:102AB000019690933C0380933B038FE799EAA3E050
:102AC00081509040A040E1F700C000001092400308
:102AD00010923F0310923A030E94DD04C4010E9449
:102AE000E7048FEF90E7A2E081509040A040E1F72B
:102AF00000C00000DD24D39480913F0390914003F7
:102B0000883C910510F0D0923A030E94E10390E0D6
:102B10008F3F9105C1F480913A03882369F30E94A5
:102B2000DD0482E064E00E94F6048BEB90E00E94FA
:102B3000E70480913B0390913C03019690933C0302
:102B400080933B032AC083339105A1F40E94DD04E6
:102B500082E064E00E94F60485EC90E00E94E704C5
:102B600080913D0390913E03019690933E038093A4
:102B70003D0313C00E94DD0482E064E00E94F6047D
:102B80008FEC90E00E94E70480913B0390913C031E
:102B9000019690933C0380933B038FE799EAA3E06F
:102BA00081509040A040E1F700C000001092400327
:102BB00010923F0310923A030E94DD04C3010E9469
:102BC000E7048FEF90E7A2E081509040A040E1F74A
:102BD00000C00000DD24D39480913F039091400316
:102BE000883C910510F0D0923A030E94E10390E0F6
:102BF0008F3F9105C1F480913A03882369F30E94C5
:102C0000DD0482E064E00E94F6048BEB90E00E9419
:102C1000E70480913B0390913C03019690933C0321
:102C200080933B032AC085339105A1F40E94DD0403
:102C300082E064E00E94F60485EC90E00E94E704E4
:102C400080913D0390913E03019690933E038093C3
:102C50003D0313C00E94DD0482E064E00E94F6049C
:102C60008FEC90E00E94E70480913B0390913C033D
:102C7000019690933C0380933B038FE799EAA3E08E
:102C800081509040A040E1F700C000001092400346
:102C900010923F0310923A030E94DD04C2010E9489
:102CA000E7048FEF90E7A2E081509040A040E1F769
:102CB00000C00000DD24D39480913F039091400335
:102CC000883C910510F0D0923A030E94E103282F2E
:102CD00090E08F3F9105C1F480913A03882361F31E
:102CE0000E94DD0482E064E00E94F6048BEB90E039
:102CF0000E94E70480913B0390913C0301969093DE
:102D00003C0380933B032DC085339105B9F4822F9A
:102D10000E944F040E94DD0482E064E00E94F604F9
:102D200085EC90E00E94E70480913D0390913E0382
:102D3000019690933E0380933D0313C00E94DD04EF
:102D400082E064E00E94F6048FEC90E00E94E704C9
:102D500080913B0390913C03019690933C038093B8
:102D60003B038FE799EAA3E081509040A040E1F750
:102D700000C000001092400310923F0310923A03EB
:102D80000E94DD04C1010E94E7048FEF90E7A2E0FA
:102D900081509040A040E1F700C00000DD24D394B2
:102DA00080913F0390914003883C910510F0D092B0
:102DB0003A030E94E103282F90E08F3F9105C1F470
:102DC00080913A03882361F30E94DD0482E064E08D
:102DD0000E94F6048BEB90E00E94E70480913B0395
:102DE00090913C03019690933C0380933B032DC04C
:102DF00087339105B9F4822F0E944F040E94DD04AD
:102E000082E064E00E94F60485EC90E00E94E70412
:102E100080913D0390913E03019690933E038093F1
:102E20003D0313C00E94DD0482E064E00E94F604CA
:102E30008FEC90E00E94E70480913B0390913C036B
:102E4000019690933C0380933B038FE799EAA3E0BC
:102E500081509040A040E1F700C000001092400374
:102E600010923F0310923A030E94DD048AE091E041
:102E70000E94E7048FEF90E7A2E081509040A040CD
:102E8000E1F700C00000DD24D39480913F039091CE
:102E90004003883C910510F0D0923A030E94E10370
:102EA000282F90E08F3F9105C1F480913A03882349
:102EB00061F30E94DD0482E064E00E94F6048BEB83
:102EC00090E00E94E70480913B0390913C030196BF
:102ED00090933C0380933B032DC086339105B9F456
:102EE000822F0E944F040E94DD0482E064E00E9471
:102EF000F60485EC90E00E94E70480913D039091F8
:102F00003E03019690933E0380933D0313C00E94BD
:102F1000DD0482E064E00E94F6048FEC90E00E9401
:102F2000E70480913B0390913C03019690933C030E
:102F300080933B038FE799EAA3E081509040A04043
:102F4000E1F700C000001092400310923F0310927E
:102F50003A030E94DD0489E191E00E94E7048FEFCB
:102F600090E7A2E081509040A040E1F700C000004F
:102F7000DD24D39480913F0390914003883C9105D8
:102F800010F0D0923A030E94E103282F90E08F3F87
:102F90009105C1F480913A03882361F30E94DD0416
:102FA00082E064E00E94F6048BEB90E00E94E7046C
:102FB00080913B0390913C03019690933C03809356
:102FC0003B032DC088339105B9F4822F0E944F0432
:102FD0000E94DD0482E064E00E94F60485EC90E04B
:102FE0000E94E70480913D0390913E0301969093E7
:102FF0003E0380933D0313C00E94DD0482E064E041
:103000000E94F6048FEC90E00E94E70480913B035D
:1030100090913C03019690933C0380933B038FE790
:1030200099EAA3E081509040A040E1F700C0000081
:103030001092400310923F0310923A030E94DD0465
:1030400089E291E00E94E7048FEF90E7A2E08150CF
:103050009040A040E1F700C00000DD24D3948091AF
:103060003F0390914003883C910510F0D0923A03C1
:103070000E94E103282F90E08F3F9105C1F48091D9
:103080003A03882361F30E94DD0482E064E00E9439
:10309000F6048BEB90E00E94E70480913B03909153
:1030A0003C03019690933C0380933B032DC08433F3
:1030B0009105B9F4822F0E944F040E94DD0482E042
:1030C00064E00E94F60485EC90E00E94E7048091A1
:1030D0003D0390913E03019690933E0380933D0300
:1030E00013C00E94DD0482E064E00E94F6048FECCD
:1030F00090E00E94E70480913B0390913C0301968D
:1031000090933C0380933B038FE799EAA3E08150BF
:103110009040A040E1F700C00000109240031092E0
:103120003F0310923A030E94DD048AE391E00E947B
:10313000E7048FEF90E7A2E081509040A040E1F7D4
:1031400000C00000DD24D39480913F0390914003A0
:10315000883C910510F0D0923A030E94E103282F99
:1031600090E08F3F9105C1F480913A03882361F389
:103170000E94DD0482E064E00E94F6048BEB90E0A4
:103180000E94E70480913B0390913C030196909349
:103190003C0380933B032DC082339105B9F4822F09
:1031A0000E944F040E94DD0482E064E00E94F60465
:1031B00085EC90E00E94E70480913D0390913E03EE
:1031C000019690933E0380933D0313C00E94DD045B
:1031D00082E064E00E94F6048FEC90E00E94E70435
:1031E00080913B0390913C03019690933C03809324
:1031F0003B038FE799EAA3E081509040A040E1F7BC
:1032000000C000001092400310923F0310923A0356
:103210000E94DD048AE491E00E94E7048FEF90E7CA
:10322000A2E081509040A040E1F700C00000DD2402
:10323000D39480913F0390914003883C910510F016
:10324000D0923A030E94E103282F90E08F3F91052E
:10325000C1F480913A03882361F30E94DD0482E087
:1032600064E00E94F6048BEB90E00E94E7048091FA
:103270003B0390913C03019690933C0380933B0366
:103280002DC080339105B9F4822F0E944F040E9413
:10329000DD0482E064E00E94F60485EC90E00E9488
:1032A000E70480913D0390913E03019690933E0385
:1032B00080933D0313C00E94DD0482E064E00E941D
:1032C000F6048FEC90E00E94E70480913B0390911C
:1032D0003C03019690933C0380933B038FE799EA6C
:1032E000A3E081509040A040E1F700C000000E94A0
:1032F000DD048BE591E00E94E70481E06DE00E942F
:10330000F60480913D0390913E03805D0E944F043E
:1033100082E061E00E94F60488E691E00E94E70402
:1033200082E06BE00E94F60480913B0390913C03A5
:10333000805D0E944F048FEF97E8A3E18150904099
:10334000A040E1F700C000000E94DD0480913D0331
:1033500090913E0320913B0330913C03281739079D
:10336000E8F41092400310923F0310923E03109233
:103370003D0310923C0310923B0383E791E00E94CF
:10338000E7048FE799EAA3E081509040A040E1F77D
:1033900000C000000E94DD040C945E05109238030A
:1033A00081E065E00E94F60488E891E00E94E7046D
:1033B00082E064E00E94F6048FE891E00E94E70456
:1033C0008FEF93ECA9E081509040A040E1F700C05E
:1033D00000000C945E050E94DD04C7010E94E70412
:1033E0008FEF96E1A1E181509040A040E1F700C04D
:1033F00000000E94DD040C945E051F920F920FB630
:103400000F9211248F939F9380913F0390914003DB
:1034100001969093400380933F039F918F910F906B
:103420000FBE0F901F901895789483B7816083BF6B
:1034300083B7846083BF83B7886083BF8EE18CBF0E
:0C34400089B7826089BF0895F894FFCF1F
:10344C003738392F3435362A3132332D41303D2B34
:10345C0057656C636F6D650053696D706C652047C3
:10346C00616D6500312D54657374312020322D54FB
:10347C00657374322000332D5465737433202034FB
:10348C002D546573743420005465737428312900ED
:10349C00312920332B2E2E3D31300074696D65207F
:1034AC006F7665720077656C6C20646F6E65007763
:1034BC00726F6E6720616E737765720032292031EE
:1034CC00332D2E2E3D313000332920322A2E2E3D25
:1034DC0031300034292035302F2E2E3D313000353F
:1034EC0029203134252E2E3D300036292035302B25
:1034FC00342B2E2E2E3D36300037292035302A32F3
:10350C002B2E2E2E3D3130380038292031342B34DF
:10351C002D312A2E2E2E3D313400392920312A34DA
:10352C002B31302F2E2E2E3D3900313029203134C5
:10353C002D342F312B2E2E3D3130007468652063D5
:10354C006F72726563743D007468652077726F6E7C
:10355C00673D0073756363656400757020746F203C
:10356C0074657374283229006661696C6564005453
:10357C00727920616761696E005465737428322911
:10358C0000312920332B352A322D2E2E3D3130009F
:10359C00322931362A322F342B2E2E3D3130003346
:1035AC0029342B332A332D352B2E2E3D3134003438
:1035BC002935302F352B322A342D2E2E3D3900351E
:1035CC002920372B32322A322D34323D2E2E003622
:1035DC002920382F342B332A362B2E2E3D32350012
:1035EC0037292035302A322F32352B343D2E2E0000
:1035FC00382931342F322D312B392D2E2E3D3134AB
:10360C00003929342A362F322D382B2E2E3D3900F5
:10361C00313029342B362D342A322B2E2E3D31309D
:10362C0000757020746F2074657374283329002022
:10363C00205465737432206C6F636B6564202000BA
:10364C005465737428332900312920342B342A28EB
:10365C00372D36292B2E2E3D313000322920382D96
:10366C003628322B31292B2E2E3D31300033292098
:10367C00322B28352A33292D393D0034292028288E
:10368C00332A382B34292D3329053D003529203197
:10369C00342D322A362B353D003629203530052B7A
:1036AC00342A31302D34313D0037292035302A323F
:1036BC002D313930023D0038292031342A322D3257
:1036CC00383D00392920332A342D3130023D003168
:1036DC0030292031342D312A362B313D00757020A4
:1036EC00746F20746573742834290020205465731A
:1036FC007433206C6F636B656420200054657374A5
:10370C002834290020205465737434206C6F636B4B
:06371C006564202000009E
:00000001FF
